:1000000030C03FC03EC03DC03CC03BC03AC039C01C
:1000100038C08BC136C035C034C033C032C031C0E7
:1000200030C02FC02EC0BBC0C0C0C4C0C9C0CEC06D
:10003000D5C0DCC0E3C0E7C0EEC0FCC002C105C152
:100040000BC10FC115C11BC121C124C12AC1A6C04A
:10005000ABC0AFC0B4C0B9C0C0C0C7C0CEC0D2C0B2
:10006000D9C011241FBECFE5D4E0DEBFCDBF20E054
:10007000A0E6B0E001C01D92A236B207E1F722D19E
:1000800090C3BECF369A3699FECF64B185B170E089
:10009000782B80E090E07FD220E030E040EA50E42E
:1000A00008D320E030E040E85AE303D308958F926C
:1000B0009F92AF92BF92CF92DF92EF92FF92E2DFD8
:1000C0006B017C019B01AC01F4D225EC3FE841E9D6
:1000D0005EEBEFD24B015C012AE037E54CE052E4E5
:1000E000C701B601E6D29B01AC01C501B401C3D181
:1000F00025EC3FE845E050E4BDD1FF90EF90DF9064
:10010000CF90BF90AF909F908F90089587B18764F4
:1001100087B986B1836886B90895879B09C090B373
:10012000892F807496FF07C0859B04C083E00895E3
:1001300081E0089582E00895E82F18BA15BA82B3D5
:10014000887F82BBE43650F088B3816C88BB85B36E
:100150008F6085BB82B3876082BB0895EA3008F464
:10016000A7C04DECE49F412D1124842F86958695E0
:100170008695880F982F990F990F890FE81B8E2F5E
:10018000E42FE695E695E6954E2F50E04A3051056E
:1001900008F047C0FA01ED5EFF4F09948FEF98B366
:1001A000976C98BBA89A3DC08FEF98B3966098BBA8
:1001B00038C08FEF98B3936C98BBA99A32C08FEF79
:1001C00098B3976498BBA99A2CC08FEF98B39660A8
:1001D00098BB95B3936095BB24C08FEF98B395649B
:1001E00098BB95B3936095BB1CC08FEF98B3956C8B
:1001F00098BB95B3936095BB14C08FEF98B397608D
:1002000098BB0FC08FEF98B3976C98BB95B3936072
:1002100095BB07C08FEF98B3976498BB95B3936075
:1002200095BB90E08A30910508F04BC0FC01E35E7D
:10023000FF4F099485B38C6385BB82B3836082BB17
:10024000089585B3886185BB089585B38C6285BBAD
:1002500082B3856082BB089585B38C6385BB929A17
:10026000089585B3886185BB82B3866082BB08959B
:1002700085B3846385BB82B3866082BB089585B3F2
:10028000846385BB82B3876082BB089585B38C612C
:1002900085BB089585B38C6385BB82B3876082BBC1
:1002A000089585B38C6385BB82B3866082BB089555
:1002B0008E2F90E08A30910520F4FC01E95DFF4F1C
:1002C0000994089580E090E057D28F3F11F0809319
:1002D00061008FEF87BB84BB81B38F6181BB81B32A
:1002E0008F7181BB82B3806E82BB83B7856083BF11
:1002F00089B7816089BF0ADF939A84E61DDF2FE901
:1003000086E891E0215080409040E1F700C0000075
:100310007894CDDE14D1609360009091600080915C
:1003200061009817B0F39398F4CF1F920F920FB615
:100330000F9211242F933F934F935F936F937F936B
:100340008F939F93AF93BF93EF93FF93F894E5DE62
:10035000813059F5809161008A3570F48091610097
:10036000865F809361006091610080E090E00CD234
:1003700080916100E1DE19C0809161008A3571F4DD
:1003800080916100875F809361006091610080E0EF
:1003900090E0FAD180916100CFDE07C060916100EA
:1003A00080E090E0F1D110926100B7DE811104C0CD
:1003B000939A80916100C0DEB0DE8230D1F58091E9
:1003C0006100833660F5809161008F5F80936100EA
:1003D000209161008DEC289F812D112486958695B2
:1003E0008695880F982F990F990F890F28130EC0A3
:1003F000809161008A50809361006091610080E08B
:1004000090E0C2D18091610097DE13C060916100DD
:1004100080E090E0B9D1809161008EDE0AC0109238
:1004200061006091610080E090E0AED18091610058
:1004300083DE73DE833061F42FE986E891E021509A
:1004400080409040E1F700C000008091600074DEC1
:100450007894FF91EF91BF91AF919F918F917F9190
:100460006F915F914F913F912F910F900FBE0F9021
:100470001F9018955058BB27AA270ED0E0C0D1D0A6
:1004800030F0D6D020F031F49F3F11F41EF4C6C0F6
:100490000EF4E095E7FBBCC0E92FE2D080F3BA1779
:1004A000620773078407950718F071F49EF5FAC088
:1004B0000EF4E0950B2EBA2FA02D0B01B90190017F
:1004C0000C01CA01A0011124FF27591B99F0593FC3
:1004D00050F4503E68F11A16F040A22F232F342F0B
:1004E0004427585FF3CF469537952795A795F04059
:1004F0005395C9F77EF41F16BA0B620B730B840B6E
:10050000BAF09150A1F0FF0FBB1F661F771F881F25
:10051000C2F70EC0BA0F621F731F841F48F487957D
:1005200077956795B795F7959E3F08F0B3CF93956C
:10053000880F08F09927EE0F97958795089598D022
:1005400088F09F5790F0B92F9927B751A0F0D1F0BC
:10055000660F771F881F991F1AF0BA95C9F712C046
:10056000B13081F09FD0B1E008959CC0672F782F03
:100570008827B85F39F0B93FCCF3869577956795B2
:10058000B395D9F73EF490958095709561957F4F1E
:100590008F4F9F4F0895E89409C097FB3EF49095C4
:1005A0008095709561957F4F8F4F9F4F9923A9F04C
:1005B000F92F96E9BB279395F695879577956795DB
:1005C000B795F111F8CFFAF4BB0F11F460FF1BC01F
:1005D0006F5F7F4F8F4F9F4F16C0882311F096E9B2
:1005E00011C0772321F09EE8872F762F05C0662360
:1005F00071F096E8862F70E060E02AF09A95660F19
:10060000771F881FDAF7880F9695879597F90895D1
:1006100097F99F6780E870E060E008959FEF80ECB5
:10062000089500240A941616170618060906089558
:1006300000240A9412161306140605060895092EBE
:100640000394000C11F4882352F0BB0F40F4BF2B2D
:1006500011F460FF04C06F5F7F4F8F4F9F4F08956D
:1006600057FD9058440F551F59F05F3F71F0479563
:10067000880F97FB991F61F09F3F79F08795089548
:10068000121613061406551FF2CF4695F1DF08C067
:10069000161617061806991FF1CF86957105610584
:1006A00008940895E894BB2766277727CB0197F92C
:1006B00008950BD0C4CFB5DF28F0BADF18F095232A
:1006C00009F0A6CFABCF1124EECFCADFA0F3959FE0
:1006D000D1F3950F50E0551F629FF001729FBB2729
:1006E000F00DB11D639FAA27F00DB11DAA1F649FD5
:1006F0006627B00DA11D661F829F2227B00DA11D88
:10070000621F739FB00DA11D621F839FA00D611D0D
:10071000221F749F3327A00D611D231F849F600D2E
:10072000211D822F762F6A2F11249F5750408AF067
:10073000E1F088234AF0EE0FFF1FBB1F661F771FF3
:10074000881F91505040A9F79E3F510570F060CF2F
:10075000AACF5F3FECF3983EDCF3869577956795DB
:10076000B795F795E7959F5FC1F7FE2B880F911D11
:100770009695879597F90895E199FECF9FBB8EBB1B
:10078000E09A99278DB30895262FE199FECF9FBB5C
:100790008EBB2DBB0FB6F894E29AE19A0FBE01967C
:0607A0000895F894FFCF5C
:00000001FF
